{
  "contractName": "BoxV3",
  "abi": [
    {
      "anonymous": false,
      "inputs": [
        {
          "indexed": false,
          "internalType": "uint256",
          "name": "newValue",
          "type": "uint256"
        }
      ],
      "name": "ValueChanged",
      "type": "event"
    },
    {
      "inputs": [],
      "name": "author",
      "outputs": [
        {
          "internalType": "string",
          "name": "",
          "type": "string"
        }
      ],
      "stateMutability": "view",
      "type": "function",
      "constant": true
    },
    {
      "inputs": [],
      "name": "content",
      "outputs": [
        {
          "internalType": "string",
          "name": "",
          "type": "string"
        }
      ],
      "stateMutability": "view",
      "type": "function",
      "constant": true
    },
    {
      "inputs": [
        {
          "internalType": "uint256",
          "name": "newValue",
          "type": "uint256"
        }
      ],
      "name": "store",
      "outputs": [],
      "stateMutability": "nonpayable",
      "type": "function"
    },
    {
      "inputs": [],
      "name": "retrieve",
      "outputs": [
        {
          "internalType": "uint256",
          "name": "",
          "type": "uint256"
        }
      ],
      "stateMutability": "view",
      "type": "function",
      "constant": true
    },
    {
      "inputs": [],
      "name": "increment",
      "outputs": [],
      "stateMutability": "nonpayable",
      "type": "function"
    },
    {
      "inputs": [
        {
          "internalType": "string",
          "name": "newContent",
          "type": "string"
        }
      ],
      "name": "storeString",
      "outputs": [],
      "stateMutability": "nonpayable",
      "type": "function"
    },
    {
      "inputs": [
        {
          "internalType": "string",
          "name": "newAuthor",
          "type": "string"
        }
      ],
      "name": "storeAuthor",
      "outputs": [],
      "stateMutability": "nonpayable",
      "type": "function"
    }
  ],
  "bytecode": "0x608060405234801561001057600080fd5b50610628806100206000396000f3fe608060405234801561001057600080fd5b506004361061007d5760003560e01c80638a4d5a671161005b5780638a4d5a67146101895780638caf2e501461020c578063a6c3e6b9146102c7578063d09de08a1461034a5761007d565b80631bb8305d146100825780632e64cec11461013d5780636057361d1461015b575b600080fd5b61013b6004803603602081101561009857600080fd5b81019080803590602001906401000000008111156100b557600080fd5b8201836020820111156100c757600080fd5b803590602001918460018302840111640100000000831117156100e957600080fd5b91908080601f016020809104026020016040519081016040528093929190818152602001838380828437600081840152601f19601f820116905080830192505050505050509192919290505050610354565b005b61014561036e565b6040518082815260200191505060405180910390f35b6101876004803603602081101561017157600080fd5b8101908080359060200190929190505050610377565b005b6101916103b8565b6040518080602001828103825283818151815260200191508051906020019080838360005b838110156101d15780820151818401526020810190506101b6565b50505050905090810190601f1680156101fe5780820380516001836020036101000a031916815260200191505b509250505060405180910390f35b6102c56004803603602081101561022257600080fd5b810190808035906020019064010000000081111561023f57600080fd5b82018360208201111561025157600080fd5b8035906020019184600183028401116401000000008311171561027357600080fd5b91908080601f016020809104026020016040519081016040528093929190818152602001838380828437600081840152601f19601f820116905080830192505050505050509192919290505050610456565b005b6102cf610470565b6040518080602001828103825283818151815260200191508051906020019080838360005b8381101561030f5780820151818401526020810190506102f4565b50505050905090810190601f16801561033c5780820380516001836020036101000a031916815260200191505b509250505060405180910390f35b61035261050e565b005b806001908051906020019061036a929190610555565b5050565b60008054905090565b806000819055507f93fe6d397c74fdf1402a8b72e47b68512f0510d7b98a4bc4cbdf6ac7108b3c59816040518082815260200191505060405180910390a150565b60018054600181600116156101000203166002900480601f01602080910402602001604051908101604052809291908181526020018280546001816001161561010002031660029004801561044e5780601f106104235761010080835404028352916020019161044e565b820191906000526020600020905b81548152906001019060200180831161043157829003601f168201915b505050505081565b806002908051906020019061046c929190610555565b5050565b60028054600181600116156101000203166002900480601f0160208091040260200160405190810160405280929190818152602001828054600181600116156101000203166002900480156105065780601f106104db57610100808354040283529160200191610506565b820191906000526020600020905b8154815290600101906020018083116104e957829003601f168201915b505050505081565b6001600054016000819055507f93fe6d397c74fdf1402a8b72e47b68512f0510d7b98a4bc4cbdf6ac7108b3c596000546040518082815260200191505060405180910390a1565b828054600181600116156101000203166002900490600052602060002090601f016020900481019282601f1061059657805160ff19168380011785556105c4565b828001600101855582156105c4579182015b828111156105c35782518255916020019190600101906105a8565b5b5090506105d191906105d5565b5090565b5b808211156105ee5760008160009055506001016105d6565b509056fea26469706673582212207da0d67aa7a64a2744b2ea0932e30b880ff901789c2c58c4baab223cc184cdfc64736f6c63430007000033",
  "immutableReferences": {},
  "source": "// contracts/BoxV2.sol\r\n// SPDX-License-Identifier: MIT\r\npragma solidity ^0.7.0;\r\n \r\ncontract BoxV3 {\r\n    uint256 private value;\r\n \r\n    // Emitted when the stored value changes\r\n    event ValueChanged(uint256 newValue);\r\n \r\n    // Stores a new value in the contract\r\n    function store(uint256 newValue) public {\r\n        value = newValue;\r\n        emit ValueChanged(newValue);\r\n    }\r\n    \r\n    // Reads the last stored value\r\n    function retrieve() public view returns (uint256) {\r\n        return value;\r\n    }\r\n    \r\n    // Increments the stored value by 1\r\n    function increment() public {\r\n        value = value + 1;\r\n        emit ValueChanged(value);\r\n    }\r\n\r\n    // For debugging easier to store strings because 0 1 2 3 4 5 confusing with numbers\r\n    string public content;\r\n\r\n    function storeString(string memory newContent) public {\r\n        content = newContent;\r\n    }\r\n\r\n    // SOMETHING NEW NEW NEW NEW NEW NEW\r\n\r\n    string public author;\r\n\r\n    function storeAuthor(string memory newAuthor) public {\r\n        author = newAuthor;\r\n    }\r\n\r\n}",
  "sourcePath": "C:/Users/MichalStefan_1oo6qh4/Documents/Code/oze2e/contracts/BoxV3.sol",
  "compiler": {
    "name": "solc",
    "version": "0.7.0+commit.9e61f92b.Emscripten.clang"
  },
  "schemaVersion": "3.3.0",
  "updatedAt": "2020-10-16T15:02:06.617Z",
  "networkType": "ethereum",
  "devdoc": {
    "kind": "dev",
    "methods": {},
    "version": 1
  },
  "userdoc": {
    "kind": "user",
    "methods": {},
    "version": 1
  }
}